{
  "_format": "hh-sol-artifact-1",
  "contractName": "Governance",
  "sourceName": "contracts/Governance.sol",
  "abi": [
    {
      "inputs": [
        {
          "internalType": "contract IVotes",
          "name": "_token",
          "type": "address"
        },
        {
          "internalType": "contract TimelockController",
          "name": "_timelock",
          "type": "address"
        },
        {
          "internalType": "uint256",
          "name": "_votingDelay",
          "type": "uint256"
        },
        {
          "internalType": "uint256",
          "name": "_votingPeriod",
          "type": "uint256"
        },
        {
          "internalType": "uint256",
          "name": "_proposalThreshold",
          "type": "uint256"
        },
        {
          "internalType": "uint256",
          "name": "_quorumPercentage",
          "type": "uint256"
        }
      ],
      "stateMutability": "nonpayable",
      "type": "constructor"
    },
    {
      "inputs": [],
      "name": "Empty",
      "type": "error"
    },
    {
      "anonymous": false,
      "inputs": [
        {
          "indexed": false,
          "internalType": "uint256",
          "name": "proposalId",
          "type": "uint256"
        }
      ],
      "name": "ProposalCanceled",
      "type": "event"
    },
    {
      "anonymous": false,
      "inputs": [
        {
          "indexed": false,
          "internalType": "uint256",
          "name": "proposalId",
          "type": "uint256"
        },
        {
          "indexed": false,
          "internalType": "address",
          "name": "proposer",
          "type": "address"
        },
        {
          "indexed": false,
          "internalType": "address[]",
          "name": "targets",
          "type": "address[]"
        },
        {
          "indexed": false,
          "internalType": "uint256[]",
          "name": "values",
          "type": "uint256[]"
        },
        {
          "indexed": false,
          "internalType": "string[]",
          "name": "signatures",
          "type": "string[]"
        },
        {
          "indexed": false,
          "internalType": "bytes[]",
          "name": "calldatas",
          "type": "bytes[]"
        },
        {
          "indexed": false,
          "internalType": "uint256",
          "name": "startBlock",
          "type": "uint256"
        },
        {
          "indexed": false,
          "internalType": "uint256",
          "name": "endBlock",
          "type": "uint256"
        },
        {
          "indexed": false,
          "internalType": "string",
          "name": "description",
          "type": "string"
        }
      ],
      "name": "ProposalCreated",
      "type": "event"
    },
    {
      "anonymous": false,
      "inputs": [
        {
          "indexed": false,
          "internalType": "uint256",
          "name": "proposalId",
          "type": "uint256"
        }
      ],
      "name": "ProposalExecuted",
      "type": "event"
    },
    {
      "anonymous": false,
      "inputs": [
        {
          "indexed": false,
          "internalType": "uint256",
          "name": "proposalId",
          "type": "uint256"
        },
        {
          "indexed": false,
          "internalType": "uint256",
          "name": "eta",
          "type": "uint256"
        }
      ],
      "name": "ProposalQueued",
      "type": "event"
    },
    {
      "anonymous": false,
      "inputs": [
        {
          "indexed": false,
          "internalType": "uint256",
          "name": "oldProposalThreshold",
          "type": "uint256"
        },
        {
          "indexed": false,
          "internalType": "uint256",
          "name": "newProposalThreshold",
          "type": "uint256"
        }
      ],
      "name": "ProposalThresholdSet",
      "type": "event"
    },
    {
      "anonymous": false,
      "inputs": [
        {
          "indexed": false,
          "internalType": "uint256",
          "name": "oldQuorumNumerator",
          "type": "uint256"
        },
        {
          "indexed": false,
          "internalType": "uint256",
          "name": "newQuorumNumerator",
          "type": "uint256"
        }
      ],
      "name": "QuorumNumeratorUpdated",
      "type": "event"
    },
    {
      "anonymous": false,
      "inputs": [
        {
          "indexed": false,
          "internalType": "address",
          "name": "oldTimelock",
          "type": "address"
        },
        {
          "indexed": false,
          "internalType": "address",
          "name": "newTimelock",
          "type": "address"
        }
      ],
      "name": "TimelockChange",
      "type": "event"
    },
    {
      "anonymous": false,
      "inputs": [
        {
          "indexed": true,
          "internalType": "address",
          "name": "voter",
          "type": "address"
        },
        {
          "indexed": false,
          "internalType": "uint256",
          "name": "proposalId",
          "type": "uint256"
        },
        {
          "indexed": false,
          "internalType": "uint8",
          "name": "support",
          "type": "uint8"
        },
        {
          "indexed": false,
          "internalType": "uint256",
          "name": "weight",
          "type": "uint256"
        },
        {
          "indexed": false,
          "internalType": "string",
          "name": "reason",
          "type": "string"
        }
      ],
      "name": "VoteCast",
      "type": "event"
    },
    {
      "anonymous": false,
      "inputs": [
        {
          "indexed": true,
          "internalType": "address",
          "name": "voter",
          "type": "address"
        },
        {
          "indexed": false,
          "internalType": "uint256",
          "name": "proposalId",
          "type": "uint256"
        },
        {
          "indexed": false,
          "internalType": "uint8",
          "name": "support",
          "type": "uint8"
        },
        {
          "indexed": false,
          "internalType": "uint256",
          "name": "weight",
          "type": "uint256"
        },
        {
          "indexed": false,
          "internalType": "string",
          "name": "reason",
          "type": "string"
        },
        {
          "indexed": false,
          "internalType": "bytes",
          "name": "params",
          "type": "bytes"
        }
      ],
      "name": "VoteCastWithParams",
      "type": "event"
    },
    {
      "anonymous": false,
      "inputs": [
        {
          "indexed": false,
          "internalType": "uint256",
          "name": "oldVotingDelay",
          "type": "uint256"
        },
        {
          "indexed": false,
          "internalType": "uint256",
          "name": "newVotingDelay",
          "type": "uint256"
        }
      ],
      "name": "VotingDelaySet",
      "type": "event"
    },
    {
      "anonymous": false,
      "inputs": [
        {
          "indexed": false,
          "internalType": "uint256",
          "name": "oldVotingPeriod",
          "type": "uint256"
        },
        {
          "indexed": false,
          "internalType": "uint256",
          "name": "newVotingPeriod",
          "type": "uint256"
        }
      ],
      "name": "VotingPeriodSet",
      "type": "event"
    },
    {
      "inputs": [],
      "name": "BALLOT_TYPEHASH",
      "outputs": [
        {
          "internalType": "bytes32",
          "name": "",
          "type": "bytes32"
        }
      ],
      "stateMutability": "view",
      "type": "function"
    },
    {
      "inputs": [],
      "name": "COUNTING_MODE",
      "outputs": [
        {
          "internalType": "string",
          "name": "",
          "type": "string"
        }
      ],
      "stateMutability": "pure",
      "type": "function"
    },
    {
      "inputs": [],
      "name": "EXTENDED_BALLOT_TYPEHASH",
      "outputs": [
        {
          "internalType": "bytes32",
          "name": "",
          "type": "bytes32"
        }
      ],
      "stateMutability": "view",
      "type": "function"
    },
    {
      "inputs": [
        {
          "internalType": "uint256",
          "name": "proposalId",
          "type": "uint256"
        },
        {
          "internalType": "uint8",
          "name": "support",
          "type": "uint8"
        }
      ],
      "name": "castVote",
      "outputs": [
        {
          "internalType": "uint256",
          "name": "",
          "type": "uint256"
        }
      ],
      "stateMutability": "nonpayable",
      "type": "function"
    },
    {
      "inputs": [
        {
          "internalType": "uint256",
          "name": "proposalId",
          "type": "uint256"
        },
        {
          "internalType": "uint8",
          "name": "support",
          "type": "uint8"
        },
        {
          "internalType": "uint8",
          "name": "v",
          "type": "uint8"
        },
        {
          "internalType": "bytes32",
          "name": "r",
          "type": "bytes32"
        },
        {
          "internalType": "bytes32",
          "name": "s",
          "type": "bytes32"
        }
      ],
      "name": "castVoteBySig",
      "outputs": [
        {
          "internalType": "uint256",
          "name": "",
          "type": "uint256"
        }
      ],
      "stateMutability": "nonpayable",
      "type": "function"
    },
    {
      "inputs": [
        {
          "internalType": "uint256",
          "name": "proposalId",
          "type": "uint256"
        },
        {
          "internalType": "uint8",
          "name": "support",
          "type": "uint8"
        },
        {
          "internalType": "string",
          "name": "reason",
          "type": "string"
        }
      ],
      "name": "castVoteWithReason",
      "outputs": [
        {
          "internalType": "uint256",
          "name": "",
          "type": "uint256"
        }
      ],
      "stateMutability": "nonpayable",
      "type": "function"
    },
    {
      "inputs": [
        {
          "internalType": "uint256",
          "name": "proposalId",
          "type": "uint256"
        },
        {
          "internalType": "uint8",
          "name": "support",
          "type": "uint8"
        },
        {
          "internalType": "string",
          "name": "reason",
          "type": "string"
        },
        {
          "internalType": "bytes",
          "name": "params",
          "type": "bytes"
        }
      ],
      "name": "castVoteWithReasonAndParams",
      "outputs": [
        {
          "internalType": "uint256",
          "name": "",
          "type": "uint256"
        }
      ],
      "stateMutability": "nonpayable",
      "type": "function"
    },
    {
      "inputs": [
        {
          "internalType": "uint256",
          "name": "proposalId",
          "type": "uint256"
        },
        {
          "internalType": "uint8",
          "name": "support",
          "type": "uint8"
        },
        {
          "internalType": "string",
          "name": "reason",
          "type": "string"
        },
        {
          "internalType": "bytes",
          "name": "params",
          "type": "bytes"
        },
        {
          "internalType": "uint8",
          "name": "v",
          "type": "uint8"
        },
        {
          "internalType": "bytes32",
          "name": "r",
          "type": "bytes32"
        },
        {
          "internalType": "bytes32",
          "name": "s",
          "type": "bytes32"
        }
      ],
      "name": "castVoteWithReasonAndParamsBySig",
      "outputs": [
        {
          "internalType": "uint256",
          "name": "",
          "type": "uint256"
        }
      ],
      "stateMutability": "nonpayable",
      "type": "function"
    },
    {
      "inputs": [
        {
          "internalType": "address[]",
          "name": "targets",
          "type": "address[]"
        },
        {
          "internalType": "uint256[]",
          "name": "values",
          "type": "uint256[]"
        },
        {
          "internalType": "bytes[]",
          "name": "calldatas",
          "type": "bytes[]"
        },
        {
          "internalType": "bytes32",
          "name": "descriptionHash",
          "type": "bytes32"
        }
      ],
      "name": "execute",
      "outputs": [
        {
          "internalType": "uint256",
          "name": "",
          "type": "uint256"
        }
      ],
      "stateMutability": "payable",
      "type": "function"
    },
    {
      "inputs": [
        {
          "internalType": "address",
          "name": "account",
          "type": "address"
        },
        {
          "internalType": "uint256",
          "name": "blockNumber",
          "type": "uint256"
        }
      ],
      "name": "getVotes",
      "outputs": [
        {
          "internalType": "uint256",
          "name": "",
          "type": "uint256"
        }
      ],
      "stateMutability": "view",
      "type": "function"
    },
    {
      "inputs": [
        {
          "internalType": "address",
          "name": "account",
          "type": "address"
        },
        {
          "internalType": "uint256",
          "name": "blockNumber",
          "type": "uint256"
        },
        {
          "internalType": "bytes",
          "name": "params",
          "type": "bytes"
        }
      ],
      "name": "getVotesWithParams",
      "outputs": [
        {
          "internalType": "uint256",
          "name": "",
          "type": "uint256"
        }
      ],
      "stateMutability": "view",
      "type": "function"
    },
    {
      "inputs": [
        {
          "internalType": "uint256",
          "name": "proposalId",
          "type": "uint256"
        },
        {
          "internalType": "address",
          "name": "account",
          "type": "address"
        }
      ],
      "name": "hasVoted",
      "outputs": [
        {
          "internalType": "bool",
          "name": "",
          "type": "bool"
        }
      ],
      "stateMutability": "view",
      "type": "function"
    },
    {
      "inputs": [
        {
          "internalType": "address[]",
          "name": "targets",
          "type": "address[]"
        },
        {
          "internalType": "uint256[]",
          "name": "values",
          "type": "uint256[]"
        },
        {
          "internalType": "bytes[]",
          "name": "calldatas",
          "type": "bytes[]"
        },
        {
          "internalType": "bytes32",
          "name": "descriptionHash",
          "type": "bytes32"
        }
      ],
      "name": "hashProposal",
      "outputs": [
        {
          "internalType": "uint256",
          "name": "",
          "type": "uint256"
        }
      ],
      "stateMutability": "pure",
      "type": "function"
    },
    {
      "inputs": [],
      "name": "name",
      "outputs": [
        {
          "internalType": "string",
          "name": "",
          "type": "string"
        }
      ],
      "stateMutability": "view",
      "type": "function"
    },
    {
      "inputs": [
        {
          "internalType": "address",
          "name": "",
          "type": "address"
        },
        {
          "internalType": "address",
          "name": "",
          "type": "address"
        },
        {
          "internalType": "uint256[]",
          "name": "",
          "type": "uint256[]"
        },
        {
          "internalType": "uint256[]",
          "name": "",
          "type": "uint256[]"
        },
        {
          "internalType": "bytes",
          "name": "",
          "type": "bytes"
        }
      ],
      "name": "onERC1155BatchReceived",
      "outputs": [
        {
          "internalType": "bytes4",
          "name": "",
          "type": "bytes4"
        }
      ],
      "stateMutability": "nonpayable",
      "type": "function"
    },
    {
      "inputs": [
        {
          "internalType": "address",
          "name": "",
          "type": "address"
        },
        {
          "internalType": "address",
          "name": "",
          "type": "address"
        },
        {
          "internalType": "uint256",
          "name": "",
          "type": "uint256"
        },
        {
          "internalType": "uint256",
          "name": "",
          "type": "uint256"
        },
        {
          "internalType": "bytes",
          "name": "",
          "type": "bytes"
        }
      ],
      "name": "onERC1155Received",
      "outputs": [
        {
          "internalType": "bytes4",
          "name": "",
          "type": "bytes4"
        }
      ],
      "stateMutability": "nonpayable",
      "type": "function"
    },
    {
      "inputs": [
        {
          "internalType": "address",
          "name": "",
          "type": "address"
        },
        {
          "internalType": "address",
          "name": "",
          "type": "address"
        },
        {
          "internalType": "uint256",
          "name": "",
          "type": "uint256"
        },
        {
          "internalType": "bytes",
          "name": "",
          "type": "bytes"
        }
      ],
      "name": "onERC721Received",
      "outputs": [
        {
          "internalType": "bytes4",
          "name": "",
          "type": "bytes4"
        }
      ],
      "stateMutability": "nonpayable",
      "type": "function"
    },
    {
      "inputs": [
        {
          "internalType": "uint256",
          "name": "proposalId",
          "type": "uint256"
        }
      ],
      "name": "proposalDeadline",
      "outputs": [
        {
          "internalType": "uint256",
          "name": "",
          "type": "uint256"
        }
      ],
      "stateMutability": "view",
      "type": "function"
    },
    {
      "inputs": [
        {
          "internalType": "uint256",
          "name": "proposalId",
          "type": "uint256"
        }
      ],
      "name": "proposalEta",
      "outputs": [
        {
          "internalType": "uint256",
          "name": "",
          "type": "uint256"
        }
      ],
      "stateMutability": "view",
      "type": "function"
    },
    {
      "inputs": [
        {
          "internalType": "uint256",
          "name": "proposalId",
          "type": "uint256"
        }
      ],
      "name": "proposalSnapshot",
      "outputs": [
        {
          "internalType": "uint256",
          "name": "",
          "type": "uint256"
        }
      ],
      "stateMutability": "view",
      "type": "function"
    },
    {
      "inputs": [],
      "name": "proposalThreshold",
      "outputs": [
        {
          "internalType": "uint256",
          "name": "",
          "type": "uint256"
        }
      ],
      "stateMutability": "view",
      "type": "function"
    },
    {
      "inputs": [
        {
          "internalType": "uint256",
          "name": "proposalId",
          "type": "uint256"
        }
      ],
      "name": "proposalVotes",
      "outputs": [
        {
          "internalType": "uint256",
          "name": "againstVotes",
          "type": "uint256"
        },
        {
          "internalType": "uint256",
          "name": "forVotes",
          "type": "uint256"
        },
        {
          "internalType": "uint256",
          "name": "abstainVotes",
          "type": "uint256"
        }
      ],
      "stateMutability": "view",
      "type": "function"
    },
    {
      "inputs": [
        {
          "internalType": "address[]",
          "name": "targets",
          "type": "address[]"
        },
        {
          "internalType": "uint256[]",
          "name": "values",
          "type": "uint256[]"
        },
        {
          "internalType": "bytes[]",
          "name": "calldatas",
          "type": "bytes[]"
        },
        {
          "internalType": "string",
          "name": "description",
          "type": "string"
        }
      ],
      "name": "propose",
      "outputs": [
        {
          "internalType": "uint256",
          "name": "",
          "type": "uint256"
        }
      ],
      "stateMutability": "nonpayable",
      "type": "function"
    },
    {
      "inputs": [
        {
          "internalType": "address[]",
          "name": "targets",
          "type": "address[]"
        },
        {
          "internalType": "uint256[]",
          "name": "values",
          "type": "uint256[]"
        },
        {
          "internalType": "bytes[]",
          "name": "calldatas",
          "type": "bytes[]"
        },
        {
          "internalType": "bytes32",
          "name": "descriptionHash",
          "type": "bytes32"
        }
      ],
      "name": "queue",
      "outputs": [
        {
          "internalType": "uint256",
          "name": "",
          "type": "uint256"
        }
      ],
      "stateMutability": "nonpayable",
      "type": "function"
    },
    {
      "inputs": [
        {
          "internalType": "uint256",
          "name": "blockNumber",
          "type": "uint256"
        }
      ],
      "name": "quorum",
      "outputs": [
        {
          "internalType": "uint256",
          "name": "",
          "type": "uint256"
        }
      ],
      "stateMutability": "view",
      "type": "function"
    },
    {
      "inputs": [],
      "name": "quorumDenominator",
      "outputs": [
        {
          "internalType": "uint256",
          "name": "",
          "type": "uint256"
        }
      ],
      "stateMutability": "view",
      "type": "function"
    },
    {
      "inputs": [],
      "name": "quorumNumerator",
      "outputs": [
        {
          "internalType": "uint256",
          "name": "",
          "type": "uint256"
        }
      ],
      "stateMutability": "view",
      "type": "function"
    },
    {
      "inputs": [
        {
          "internalType": "address",
          "name": "target",
          "type": "address"
        },
        {
          "internalType": "uint256",
          "name": "value",
          "type": "uint256"
        },
        {
          "internalType": "bytes",
          "name": "data",
          "type": "bytes"
        }
      ],
      "name": "relay",
      "outputs": [],
      "stateMutability": "nonpayable",
      "type": "function"
    },
    {
      "inputs": [
        {
          "internalType": "uint256",
          "name": "newProposalThreshold",
          "type": "uint256"
        }
      ],
      "name": "setProposalThreshold",
      "outputs": [],
      "stateMutability": "nonpayable",
      "type": "function"
    },
    {
      "inputs": [
        {
          "internalType": "uint256",
          "name": "newVotingDelay",
          "type": "uint256"
        }
      ],
      "name": "setVotingDelay",
      "outputs": [],
      "stateMutability": "nonpayable",
      "type": "function"
    },
    {
      "inputs": [
        {
          "internalType": "uint256",
          "name": "newVotingPeriod",
          "type": "uint256"
        }
      ],
      "name": "setVotingPeriod",
      "outputs": [],
      "stateMutability": "nonpayable",
      "type": "function"
    },
    {
      "inputs": [
        {
          "internalType": "uint256",
          "name": "proposalId",
          "type": "uint256"
        }
      ],
      "name": "state",
      "outputs": [
        {
          "internalType": "enum IGovernor.ProposalState",
          "name": "",
          "type": "uint8"
        }
      ],
      "stateMutability": "view",
      "type": "function"
    },
    {
      "inputs": [
        {
          "internalType": "bytes4",
          "name": "interfaceId",
          "type": "bytes4"
        }
      ],
      "name": "supportsInterface",
      "outputs": [
        {
          "internalType": "bool",
          "name": "",
          "type": "bool"
        }
      ],
      "stateMutability": "view",
      "type": "function"
    },
    {
      "inputs": [],
      "name": "timelock",
      "outputs": [
        {
          "internalType": "address",
          "name": "",
          "type": "address"
        }
      ],
      "stateMutability": "view",
      "type": "function"
    },
    {
      "inputs": [],
      "name": "token",
      "outputs": [
        {
          "internalType": "contract IVotes",
          "name": "",
          "type": "address"
        }
      ],
      "stateMutability": "view",
      "type": "function"
    },
    {
      "inputs": [
        {
          "internalType": "uint256",
          "name": "newQuorumNumerator",
          "type": "uint256"
        }
      ],
      "name": "updateQuorumNumerator",
      "outputs": [],
      "stateMutability": "nonpayable",
      "type": "function"
    },
    {
      "inputs": [
        {
          "internalType": "contract TimelockController",
          "name": "newTimelock",
          "type": "address"
        }
      ],
      "name": "updateTimelock",
      "outputs": [],
      "stateMutability": "nonpayable",
      "type": "function"
    },
    {
      "inputs": [],
      "name": "version",
      "outputs": [
        {
          "internalType": "string",
          "name": "",
          "type": "string"
        }
      ],
      "stateMutability": "view",
      "type": "function"
    },
    {
      "inputs": [],
      "name": "votingDelay",
      "outputs": [
        {
          "internalType": "uint256",
          "name": "",
          "type": "uint256"
        }
      ],
      "stateMutability": "view",
      "type": "function"
    },
    {
      "inputs": [],
      "name": "votingPeriod",
      "outputs": [
        {
          "internalType": "uint256",
          "name": "",
          "type": "uint256"
        }
      ],
      "stateMutability": "view",
      "type": "function"
    },
    {
      "stateMutability": "payable",
      "type": "receive"
    }
  ],
  "bytecode": "0x6101606040523480156200001257600080fd5b506040516200740d3803806200740d8339818101604052810190620000389190620005ff565b8481878686866040518060400160405280600a81526020017f476f7665726e616e63650000000000000000000000000000000000000000000081525080620000856200022760201b60201c565b60008280519060200120905060008280519060200120905060007f8b73c3c69bb8fe3d512ecc4cf759cc79239f7b179b0ffacaa9a75d522b39400f90508260e081815250508161010081815250504660a08181525050620000ee8184846200026460201b60201c565b608081815250503073ffffffffffffffffffffffffffffffffffffffff1660c08173ffffffffffffffffffffffffffffffffffffffff1660601b8152505080610120818152505050505050508060009080519060200190620001529291906200050a565b50506200016583620002a060201b60201c565b6200017682620002e760201b60201c565b62000187816200037460201b60201c565b5050508073ffffffffffffffffffffffffffffffffffffffff166101408173ffffffffffffffffffffffffffffffffffffffff1660601b8152505050620001d481620003bb60201b60201c565b50620001e6816200045d60201b60201c565b506200021b7f968bcff5f8255368b9b16ea05db630fce593a72cb574cc38538788885e812f0860001b620004fe60201b60201c565b50505050505062000a1d565b60606040518060400160405280600181526020017f3100000000000000000000000000000000000000000000000000000000000000815250905090565b600083838346306040516020016200028195949392919062000743565b6040516020818303038152906040528051906020012090509392505050565b7fc565b045403dc03c2eea82b81a0465edad9e2e7fc4d97e11421c209da93d7a9360045482604051620002d5929190620007e4565b60405180910390a18060048190555050565b600081116200032d576040517f08c379a00000000000000000000000000000000000000000000000000000000081526004016200032490620007c2565b60405180910390fd5b7f7e3f7f0708a84de9203036abaa450dccc85ad5ff52f78c170f3edb55cf5e88286005548260405162000362929190620007e4565b60405180910390a18060058190555050565b7fccb45da8d5717e6c4544694297c4ba5cf151d455c9bb0ed4fc7a38411bc0546160065482604051620003a9929190620007e4565b60405180910390a18060068190555050565b620003cb6200050160201b60201c565b81111562000410576040517f08c379a00000000000000000000000000000000000000000000000000000000081526004016200040790620007a0565b60405180910390fd5b60006008549050816008819055507f0553476bf02ef2726e8ce5ced78d63e26e602e4a2257b1f559418e24b4633997818360405162000451929190620007e4565b60405180910390a15050565b7f08f74ea46ef7894f65eabfb5e6e695de773a000b47c529ab559178069b226401600960009054906101000a900473ffffffffffffffffffffffffffffffffffffffff1682604051620004b292919062000716565b60405180910390a180600960006101000a81548173ffffffffffffffffffffffffffffffffffffffff021916908373ffffffffffffffffffffffffffffffffffffffff16021790555050565b50565b60006064905090565b8280546200051890620008a6565b90600052602060002090601f0160209004810192826200053c576000855562000588565b82601f106200055757805160ff191683800117855562000588565b8280016001018555821562000588579182015b82811115620005875782518255916020019190600101906200056a565b5b5090506200059791906200059b565b5090565b5b80821115620005b65760008160009055506001016200059c565b5090565b600081519050620005cb81620009cf565b92915050565b600081519050620005e281620009e9565b92915050565b600081519050620005f98162000a03565b92915050565b60008060008060008060c087890312156200061957600080fd5b60006200062989828a01620005ba565b96505060206200063c89828a01620005d1565b95505060406200064f89828a01620005e8565b94505060606200066289828a01620005e8565b93505060806200067589828a01620005e8565b92505060a06200068889828a01620005e8565b9150509295509295509295565b620006a08162000822565b82525050565b620006b1816200084a565b82525050565b6000620006c660438362000811565b9150620006d3826200090b565b606082019050919050565b6000620006ed60278362000811565b9150620006fa8262000980565b604082019050919050565b62000710816200089c565b82525050565b60006040820190506200072d600083018562000695565b6200073c602083018462000695565b9392505050565b600060a0820190506200075a6000830188620006a6565b620007696020830187620006a6565b620007786040830186620006a6565b62000787606083018562000705565b62000796608083018462000695565b9695505050505050565b60006020820190508181036000830152620007bb81620006b7565b9050919050565b60006020820190508181036000830152620007dd81620006de565b9050919050565b6000604082019050620007fb600083018562000705565b6200080a602083018462000705565b9392505050565b600082825260208201905092915050565b60006200082f826200087c565b9050919050565b600062000843826200087c565b9050919050565b6000819050919050565b6000620008618262000822565b9050919050565b6000620008758262000836565b9050919050565b600073ffffffffffffffffffffffffffffffffffffffff82169050919050565b6000819050919050565b60006002820490506001821680620008bf57607f821691505b60208210811415620008d657620008d5620008dc565b5b50919050565b7f4e487b7100000000000000000000000000000000000000000000000000000000600052602260045260246000fd5b7f476f7665726e6f72566f74657351756f72756d4672616374696f6e3a2071756f60008201527f72756d4e756d657261746f72206f7665722071756f72756d44656e6f6d696e6160208201527f746f720000000000000000000000000000000000000000000000000000000000604082015250565b7f476f7665726e6f7253657474696e67733a20766f74696e6720706572696f642060008201527f746f6f206c6f7700000000000000000000000000000000000000000000000000602082015250565b620009da8162000854565b8114620009e657600080fd5b50565b620009f48162000868565b811462000a0057600080fd5b50565b62000a0e816200089c565b811462000a1a57600080fd5b50565b60805160a05160c05160601c60e05161010051610120516101405160601c61698162000a8c600039600081816121a801528181612e5e01526130e0015260006133b5015260006133f7015260006133d60152600061330b015260006133610152600061338a01526169816000f3fe60806040526004361061023f5760003560e01c80637d5e81e21161012e578063c59057e4116100ab578063eb9019d41161006f578063eb9019d4146109ac578063ece40cc1146109e9578063f23a6e6114610a12578063f8ce560a14610a4f578063fc0c546a14610a8c57610285565b8063c59057e4146108c5578063d33219b414610902578063dd4e2ba51461092d578063deaaa7cc14610958578063ea0217cf1461098357610285565b8063ab58fb8e116100f2578063ab58fb8e146107ba578063b58131b0146107f7578063bc197c8114610822578063c01f9e371461085f578063c28bc2fa1461089c57610285565b80637d5e81e2146106c157806397c3d334146106fe5780639a802a6d14610729578063a7713a7014610766578063a890c9101461079157610285565b80633932abb1116101bc57806354fd4d501161018057806354fd4d50146105b657806356781388146105e15780635f398a141461061e57806370b0f6601461065b5780637b3c71d31461068457610285565b80633932abb1146104955780633bccf4fd146104c05780633e4f49e6146104fd578063438596321461053a578063544ffc9c1461057757610285565b8063150b7a0211610203578063150b7a0214610383578063160cbed7146103c05780632656227d146103fd5780632d63f6931461042d5780632fe3e2611461046a57610285565b806301ffc9a71461028a57806302a251a3146102c757806303420181146102f257806306f3f9e61461032f57806306fdde031461035857610285565b36610285573073ffffffffffffffffffffffffffffffffffffffff16610263610ab7565b73ffffffffffffffffffffffffffffffffffffffff161461028357600080fd5b005b600080fd5b34801561029657600080fd5b506102b160048036038101906102ac91906149f9565b610b4a565b6040516102be919061562d565b60405180910390f35b3480156102d357600080fd5b506102dc610be0565b6040516102e99190615a58565b60405180910390f35b3480156102fe57600080fd5b5061031960048036038101906103149190614c19565b610c73565b6040516103269190615a58565b60405180910390f35b34801561033b57600080fd5b5061035660048036038101906103519190614a4b565b610d58565b005b34801561036457600080fd5b5061036d610e54565b60405161037a91906157d6565b60405180910390f35b34801561038f57600080fd5b506103aa60048036038101906103a59190614620565b610ee6565b6040516103b79190615785565b60405180910390f35b3480156103cc57600080fd5b506103e760048036038101906103e29190614839565b610efa565b6040516103f49190615a58565b60405180910390f35b61041760048036038101906104129190614839565b61121e565b6040516104249190615a58565b60405180910390f35b34801561043957600080fd5b50610454600480360381019061044f9190614a4b565b611403565b6040516104619190615a58565b60405180910390f35b34801561047657600080fd5b5061047f611471565b60405161048c9190615648565b60405180910390f35b3480156104a157600080fd5b506104aa611495565b6040516104b79190615a58565b60405180910390f35b3480156104cc57600080fd5b506104e760048036038101906104e29190614ceb565b611528565b6040516104f49190615a58565b60405180910390f35b34801561050957600080fd5b50610524600480360381019061051f9190614a4b565b6115b2565b60405161053191906157bb565b60405180910390f35b34801561054657600080fd5b50610561600480360381019061055c9190614a9d565b611648565b60405161056e919061562d565b60405180910390f35b34801561058357600080fd5b5061059e60048036038101906105999190614a4b565b6116b3565b6040516105ad93929190615b4c565b60405180910390f35b3480156105c257600080fd5b506105cb6116eb565b6040516105d891906157d6565b60405180910390f35b3480156105ed57600080fd5b5061060860048036038101906106039190614ad9565b611728565b6040516106159190615a58565b60405180910390f35b34801561062a57600080fd5b5061064560048036038101906106409190614b81565b611759565b6040516106529190615a58565b60405180910390f35b34801561066757600080fd5b50610682600480360381019061067d9190614a4b565b6117c3565b005b34801561069057600080fd5b506106ab60048036038101906106a69190614b15565b6118bf565b6040516106b89190615a58565b60405180910390f35b3480156106cd57600080fd5b506106e860048036038101906106e391906148e4565b611927565b6040516106f59190615a58565b60405180910390f35b34801561070a57600080fd5b506107136119c3565b6040516107209190615a58565b60405180910390f35b34801561073557600080fd5b50610750600480360381019061074b91906147d2565b6119cc565b60405161075d9190615a58565b60405180910390f35b34801561077257600080fd5b5061077b6119e2565b6040516107889190615a58565b60405180910390f35b34801561079d57600080fd5b506107b860048036038101906107b39190614a22565b6119ec565b005b3480156107c657600080fd5b506107e160048036038101906107dc9190614a4b565b611ae8565b6040516107ee9190615a58565b60405180910390f35b34801561080357600080fd5b5061080c611bc4565b6040516108199190615a58565b60405180910390f35b34801561082e57600080fd5b5061084960048036038101906108449190614561565b611c57565b6040516108569190615785565b60405180910390f35b34801561086b57600080fd5b5061088660048036038101906108819190614a4b565b611c6c565b6040516108939190615a58565b60405180910390f35b3480156108a857600080fd5b506108c360048036038101906108be9190614766565b611cda565b005b3480156108d157600080fd5b506108ec60048036038101906108e79190614839565b611e20565b6040516108f99190615a58565b60405180910390f35b34801561090e57600080fd5b50610917611e5c565b6040516109249190615488565b60405180910390f35b34801561093957600080fd5b50610942611e86565b60405161094f91906157d6565b60405180910390f35b34801561096457600080fd5b5061096d611ec3565b60405161097a9190615648565b60405180910390f35b34801561098f57600080fd5b506109aa60048036038101906109a59190614a4b565b611ee7565b005b3480156109b857600080fd5b506109d360048036038101906109ce919061472a565b611fe3565b6040516109e09190615a58565b60405180910390f35b3480156109f557600080fd5b50610a106004803603810190610a0b9190614a4b565b611fff565b005b348015610a1e57600080fd5b50610a396004803603810190610a34919061469b565b6120fb565b604051610a469190615785565b60405180910390f35b348015610a5b57600080fd5b50610a766004803603810190610a719190614a4b565b612110565b604051610a839190615a58565b60405180910390f35b348015610a9857600080fd5b50610aa16121a6565b604051610aae91906157a0565b60405180910390f35b6000610ae57fe3807a26662d16d9d6399e8a582e2905757d4cf7323372b4eca3588a57b0da2b60001b6121ca565b610b117fcfabd321b97f94c5ace13a9d26831d4f79f53cecf0a5b369ec3b7090ffc1452560001b6121ca565b610b3d7f4ec7ade8c1c938a66f29fe80b6b93a17445fc56a938be6034b65c0beeb63e29960001b6121ca565b610b456121cd565b905090565b6000610b787fa585fe0f0ec8c159fdf85f25cebda694da0abba6132de99ab23140eafae865de60001b6121ca565b610ba47f052b58c6be2c7e43a371819ca649fa566e01e2cea37565b90e9d56123e6a971d60001b6121ca565b610bd07fc9457f8971b23038463393a981e9c701889e3c766b372edbfe8939fc8ee0103c60001b6121ca565b610bd9826121f7565b9050919050565b6000610c0e7fd35a2a893ac47a3e009f64faafd07c5499711c75468781e73910b51eb4074aa060001b6121ca565b610c3a7ff1b2168f1d4caf68016fc04f95dcb4b47706346b5bbeb87faddac80a667e8f3460001b6121ca565b610c667ff50bf411b0779bd076dfd4e24d6e862aa5e909997895d7a5ac5e6a099ffdf98360001b6121ca565b610c6e612271565b905090565b600080610cf6610cee7fb3b3f3b703cd84ce352197dcff232b1b5d3cfb2025ce47cf04742d0651f1af888c8c8c8c604051610caf929190615421565b60405180910390208b80519060200120604051602001610cd39594939291906156ed565b6040516020818303038152906040528051906020012061227b565b868686612295565b9050610d498a828b8b8b8080601f016020809104026020016040519081016040528093929190818152602001838380828437600081840152601f19601f820116905080830192505050505050508a6122c0565b91505098975050505050505050565b610d60610ab7565b73ffffffffffffffffffffffffffffffffffffffff16610d7e6124c9565b73ffffffffffffffffffffffffffffffffffffffff1614610dd4576040517f08c379a0000000000000000000000000000000000000000000000000000000008152600401610dcb90615818565b60405180910390fd5b3073ffffffffffffffffffffffffffffffffffffffff16610df3610ab7565b73ffffffffffffffffffffffffffffffffffffffff1614610e48576000610e186124d1565b604051610e26929190615421565b604051809103902090505b80610e3c60026124de565b14610e4657610e31565b505b610e51816125ba565b50565b606060008054610e6390616166565b80601f0160208091040260200160405190810160405280929190818152602001828054610e8f90616166565b8015610edc5780601f10610eb157610100808354040283529160200191610edc565b820191906000526020600020905b815481529060010190602001808311610ebf57829003601f168201915b5050505050905090565b600063150b7a0260e01b9050949350505050565b600080610f0986868686611e20565b905060046007811115610f45577f4e487b7100000000000000000000000000000000000000000000000000000000600052602160045260246000fd5b610f4e826115b2565b6007811115610f86577f4e487b7100000000000000000000000000000000000000000000000000000000600052602160045260246000fd5b14610fc6576040517f08c379a0000000000000000000000000000000000000000000000000000000008152600401610fbd90615998565b60405180910390fd5b6000600960009054906101000a900473ffffffffffffffffffffffffffffffffffffffff1673ffffffffffffffffffffffffffffffffffffffff1663f27a0c926040518163ffffffff1660e01b815260040160206040518083038186803b15801561103057600080fd5b505afa158015611044573d6000803e3d6000fd5b505050506040513d601f19601f820116820180604052508101906110689190614a74565b9050600960009054906101000a900473ffffffffffffffffffffffffffffffffffffffff1673ffffffffffffffffffffffffffffffffffffffff1663b1c5f4278888886000896040518663ffffffff1660e01b81526004016110ce95949392919061554f565b60206040518083038186803b1580156110e657600080fd5b505afa1580156110fa573d6000803e3d6000fd5b505050506040513d601f19601f8201168201806040525081019061111e91906149d0565b600a600084815260200190815260200160002081905550600960009054906101000a900473ffffffffffffffffffffffffffffffffffffffff1673ffffffffffffffffffffffffffffffffffffffff16638f2a0bb0888888600089876040518763ffffffff1660e01b815260040161119b969594939291906155b7565b600060405180830381600087803b1580156111b557600080fd5b505af11580156111c9573d6000803e3d6000fd5b505050507f9a2e42fd6722813d69113e7d0079d3d940171428df7373df9c7f7617cfda28928282426111fb9190615e8f565b604051611209929190615b23565b60405180910390a18192505050949350505050565b60008061122d86868686611e20565b9050600061123a826115b2565b905060046007811115611276577f4e487b7100000000000000000000000000000000000000000000000000000000600052602160045260246000fd5b8160078111156112af577f4e487b7100000000000000000000000000000000000000000000000000000000600052602160045260246000fd5b148061132b5750600560078111156112f0577f4e487b7100000000000000000000000000000000000000000000000000000000600052602160045260246000fd5b816007811115611329577f4e487b7100000000000000000000000000000000000000000000000000000000600052602160045260246000fd5b145b61136a576040517f08c379a000000000000000000000000000000000000000000000000000000000815260040161136190615998565b60405180910390fd5b600180600084815260200190815260200160002060020160006101000a81548160ff0219169083151502179055507f712ae1383f79ac853f8d882153778e0260ef8f03b504e2866e0593e04d2b291f826040516113c79190615a58565b60405180910390a16113dc828888888861264f565b6113e9828888888861277f565b6113f68288888888612817565b8192505050949350505050565b6000611460600160008481526020019081526020016000206000016040518060200160405290816000820160009054906101000a900467ffffffffffffffff1667ffffffffffffffff1667ffffffffffffffff1681525050612872565b67ffffffffffffffff169050919050565b7fb3b3f3b703cd84ce352197dcff232b1b5d3cfb2025ce47cf04742d0651f1af8881565b60006114c37f79d721491fc4a920637cc4a53ea073f939b0e6647288432846ec050a4faf182d60001b6121ca565b6114ef7f6df17e1247f35c85d0a06bb03ba80b36fd058021cbde5f292c97a21c1de878eb60001b6121ca565b61151b7f83494a9fe6c708746003ba6b1c01e2845d4bc1f1cc78ba2f911d7ba32f9a3b1a60001b6121ca565b611523612880565b905090565b6000806115896115817f150214d74d59b7d1e90c73fc22ef3d991dd0a76b046543d4d80ab92d2a50328f8989604051602001611566939291906156b6565b6040516020818303038152906040528051906020012061227b565b868686612295565b90506115a68782886040518060200160405280600081525061288a565b91505095945050505050565b60006115e07f8799bf1800b13d21594f23aa5297e79377dc748e9e73c2473a4621fac8b089af60001b6121ca565b61160c7fca28428d3d037596b4995a7ac276c5350d140e308a476a7226f5f02069e6eba560001b6121ca565b6116387f708f5cdde69d86255c0d23f9556a243b5a2c037f27996be5634ff44851cec6c460001b6121ca565b611641826128aa565b9050919050565b60006007600084815260200190815260200160002060030160008373ffffffffffffffffffffffffffffffffffffffff1673ffffffffffffffffffffffffffffffffffffffff16815260200190815260200160002060009054906101000a900460ff16905092915050565b600080600080600760008681526020019081526020016000209050806000015481600101548260020154935093509350509193909250565b60606040518060400160405280600181526020017f3100000000000000000000000000000000000000000000000000000000000000815250905090565b6000806117336124c9565b90506117508482856040518060200160405280600081525061288a565b91505092915050565b6000806117646124c9565b90506117b787828888888080601f016020809104026020016040519081016040528093929190818152602001838380828437600081840152601f19601f82011690508083019250505050505050876122c0565b91505095945050505050565b6117cb610ab7565b73ffffffffffffffffffffffffffffffffffffffff166117e96124c9565b73ffffffffffffffffffffffffffffffffffffffff161461183f576040517f08c379a000000000000000000000000000000000000000000000000000000000815260040161183690615818565b60405180910390fd5b3073ffffffffffffffffffffffffffffffffffffffff1661185e610ab7565b73ffffffffffffffffffffffffffffffffffffffff16146118b35760006118836124d1565b604051611891929190615421565b604051809103902090505b806118a760026124de565b146118b15761189c565b505b6118bc81612ae8565b50565b6000806118ca6124c9565b905061191c86828787878080601f016020809104026020016040519081016040528093929190818152602001838380828437600081840152601f19601f8201169050808301925050505050505061288a565b915050949350505050565b60006119557f2ab893cc819c50c3b94c8b755d10f56f49d0332419c0696a8f7955077ec2643560001b6121ca565b6119817fb2ae673846bc7d1671381a8e49f7921919f16409fcd4b594784041ac4c7ff8e360001b6121ca565b6119ad7f2ac94d6ce6d2b3a9fc92ff08523f8828f3c5d6a3bdf73507e5f88b48db22d58060001b6121ca565b6119b985858585612b2d565b9050949350505050565b60006064905090565b60006119d9848484612e5a565b90509392505050565b6000600854905090565b6119f4610ab7565b73ffffffffffffffffffffffffffffffffffffffff16611a126124c9565b73ffffffffffffffffffffffffffffffffffffffff1614611a68576040517f08c379a0000000000000000000000000000000000000000000000000000000008152600401611a5f90615818565b60405180910390fd5b3073ffffffffffffffffffffffffffffffffffffffff16611a87610ab7565b73ffffffffffffffffffffffffffffffffffffffff1614611adc576000611aac6124d1565b604051611aba929190615421565b604051809103902090505b80611ad060026124de565b14611ada57611ac5565b505b611ae581612f10565b50565b600080600960009054906101000a900473ffffffffffffffffffffffffffffffffffffffff1673ffffffffffffffffffffffffffffffffffffffff1663d45c4435600a6000868152602001908152602001600020546040518263ffffffff1660e01b8152600401611b599190615648565b60206040518083038186803b158015611b7157600080fd5b505afa158015611b85573d6000803e3d6000fd5b505050506040513d601f19601f82011682018060405250810190611ba99190614a74565b905060018114611bb95780611bbc565b60005b915050919050565b6000611bf27f0316c33b8c4bcb8519d605045748c8d6440949ffb4c750fd868290a0f4e9042760001b6121ca565b611c1e7fabdb11fac6d806f1fc24ce14c1c4e45b4f5e04709210e73e777b53488edc667a60001b6121ca565b611c4a7fc84c1f2daec3914af6642578d158469a619c8400c4d9e9fadda07241cc0c161060001b6121ca565b611c52612faf565b905090565b600063bc197c8160e01b905095945050505050565b6000611cc9600160008481526020019081526020016000206001016040518060200160405290816000820160009054906101000a900467ffffffffffffffff1667ffffffffffffffff1667ffffffffffffffff1681525050612872565b67ffffffffffffffff169050919050565b611ce2610ab7565b73ffffffffffffffffffffffffffffffffffffffff16611d006124c9565b73ffffffffffffffffffffffffffffffffffffffff1614611d56576040517f08c379a0000000000000000000000000000000000000000000000000000000008152600401611d4d90615818565b60405180910390fd5b3073ffffffffffffffffffffffffffffffffffffffff16611d75610ab7565b73ffffffffffffffffffffffffffffffffffffffff1614611dca576000611d9a6124d1565b604051611da8929190615421565b604051809103902090505b80611dbe60026124de565b14611dc857611db3565b505b611e198483838080601f016020809104026020016040519081016040528093929190818152602001838380828437600081840152601f19601f8201169050808301925050505050505085612fb9565b5050505050565b600084848484604051602001611e3994939291906154f5565b6040516020818303038152906040528051906020012060001c9050949350505050565b6000600960009054906101000a900473ffffffffffffffffffffffffffffffffffffffff16905090565b60606040518060400160405280602081526020017f737570706f72743d627261766f2671756f72756d3d666f722c6162737461696e815250905090565b7f150214d74d59b7d1e90c73fc22ef3d991dd0a76b046543d4d80ab92d2a50328f81565b611eef610ab7565b73ffffffffffffffffffffffffffffffffffffffff16611f0d6124c9565b73ffffffffffffffffffffffffffffffffffffffff1614611f63576040517f08c379a0000000000000000000000000000000000000000000000000000000008152600401611f5a90615818565b60405180910390fd5b3073ffffffffffffffffffffffffffffffffffffffff16611f82610ab7565b73ffffffffffffffffffffffffffffffffffffffff1614611fd7576000611fa76124d1565b604051611fb5929190615421565b604051809103902090505b80611fcb60026124de565b14611fd557611fc0565b505b611fe081612fe8565b50565b6000611ff78383611ff2613070565b612e5a565b905092915050565b612007610ab7565b73ffffffffffffffffffffffffffffffffffffffff166120256124c9565b73ffffffffffffffffffffffffffffffffffffffff161461207b576040517f08c379a000000000000000000000000000000000000000000000000000000000815260040161207290615818565b60405180910390fd5b3073ffffffffffffffffffffffffffffffffffffffff1661209a610ab7565b73ffffffffffffffffffffffffffffffffffffffff16146120ef5760006120bf6124d1565b6040516120cd929190615421565b604051809103902090505b806120e360026124de565b146120ed576120d8565b505b6120f881613087565b50565b600063f23a6e6160e01b905095945050505050565b600061213e7fdc034ab9f2c9a81285d253c9dc9b62ae80dbb49aee01e3c9fe510586ba6f8d3c60001b6121ca565b61216a7f666ba9d92035f9510f3b4aa69c1b9c2f5988da9392bbfceaa55be92850258c0460001b6121ca565b6121967f58bef94f429f00de4edb7a8a9c8df5ad12c1677774549ba94b68147a73b50c0360001b6121ca565b61219f826130cc565b9050919050565b7f000000000000000000000000000000000000000000000000000000000000000081565b50565b6000600960009054906101000a900473ffffffffffffffffffffffffffffffffffffffff16905090565b60007f6e665ced000000000000000000000000000000000000000000000000000000007bffffffffffffffffffffffffffffffffffffffffffffffffffffffff1916827bffffffffffffffffffffffffffffffffffffffffffffffffffffffff1916148061226a5750612269826131a2565b5b9050919050565b6000600554905090565b600061228e612288613307565b83613421565b9050919050565b60008060006122a687878787613454565b915091506122b381613561565b8192505050949350505050565b60008060016000888152602001908152602001600020905060016007811115612312577f4e487b7100000000000000000000000000000000000000000000000000000000600052602160045260246000fd5b61231b886115b2565b6007811115612353577f4e487b7100000000000000000000000000000000000000000000000000000000600052602160045260246000fd5b14612393576040517f08c379a000000000000000000000000000000000000000000000000000000000815260040161238a90615918565b60405180910390fd5b60006123f2876123e2846000016040518060200160405290816000820160009054906101000a900467ffffffffffffffff1667ffffffffffffffff1667ffffffffffffffff1681525050612872565b67ffffffffffffffff1686612e5a565b905061240188888884886138b2565b600084511415612464578673ffffffffffffffffffffffffffffffffffffffff167fb8e138887d0aa13bab447e82de9d5c1777041ecd21ca36ba824ff1e6c07ddda4898884896040516124579493929190615b83565b60405180910390a26124bb565b8673ffffffffffffffffffffffffffffffffffffffff167fe2babfbac5889a709b63bb7f598b324e08bc5a4fb9ec647fb3cbc9ec07eb871289888489896040516124b2959493929190615bcf565b60405180910390a25b809250505095945050505050565b600033905090565b3660008036915091509091565b60006124e982613b2b565b15612520576040517f3db2a12a00000000000000000000000000000000000000000000000000000000815260040160405180910390fd5b60008260000160009054906101000a9004600f0b905082600101600082600f0b600f0b815260200190815260200160002054915082600101600082600f0b600f0b815260200190815260200160002060009055600181018360000160006101000a8154816fffffffffffffffffffffffffffffffff0219169083600f0b6fffffffffffffffffffffffffffffffff16021790555050919050565b6125c26119c3565b811115612604576040517f08c379a00000000000000000000000000000000000000000000000000000000081526004016125fb90615838565b60405180910390fd5b60006008549050816008819055507f0553476bf02ef2726e8ce5ced78d63e26e602e4a2257b1f559418e24b46339978183604051612643929190615b23565b60405180910390a15050565b3073ffffffffffffffffffffffffffffffffffffffff1661266e610ab7565b73ffffffffffffffffffffffffffffffffffffffff16146127785760005b8451811015612776573073ffffffffffffffffffffffffffffffffffffffff168582815181106126e5577f4e487b7100000000000000000000000000000000000000000000000000000000600052603260045260246000fd5b602002602001015173ffffffffffffffffffffffffffffffffffffffff16141561276557612764838281518110612745577f4e487b7100000000000000000000000000000000000000000000000000000000600052603260045260246000fd5b6020026020010151805190602001206002613b6090919063ffffffff16565b5b8061276f906161c9565b905061268c565b505b5050505050565b6127ab7f22b11c63eeb2ba2fbc14d577b4fb53e0b267f846ee6cc87d4ea706fe105ed5fc60001b6121ca565b6127d77f6f5892e39341cd0d0dbac2e8198de5bfcc9fc5ce6c50cac5248f1f27151d0f9c60001b6121ca565b6128037f87ca7564204a71eef76ac0564a4ecf71196b7d961a5eebacb57e51a039224e9a60001b6121ca565b6128108585858585613bdc565b5050505050565b3073ffffffffffffffffffffffffffffffffffffffff16612836610ab7565b73ffffffffffffffffffffffffffffffffffffffff161461286b5761285b6002613b2b565b61286a576128696002613c7a565b5b5b5050505050565b600081600001519050919050565b6000600454905090565b60006128a08585858561289b613070565b6122c0565b9050949350505050565b6000806128b683613cfb565b9050600460078111156128f2577f4e487b7100000000000000000000000000000000000000000000000000000000600052602160045260246000fd5b81600781111561292b577f4e487b7100000000000000000000000000000000000000000000000000000000600052602160045260246000fd5b146129395780915050612ae3565b6000600a60008581526020019081526020016000205490506000801b811415612966578192505050612ae3565b600960009054906101000a900473ffffffffffffffffffffffffffffffffffffffff1673ffffffffffffffffffffffffffffffffffffffff16632ab0f529826040518263ffffffff1660e01b81526004016129c19190615648565b60206040518083038186803b1580156129d957600080fd5b505afa1580156129ed573d6000803e3d6000fd5b505050506040513d601f19601f82011682018060405250810190612a1191906149a7565b15612a2157600792505050612ae3565b600960009054906101000a900473ffffffffffffffffffffffffffffffffffffffff1673ffffffffffffffffffffffffffffffffffffffff1663584b153e826040518263ffffffff1660e01b8152600401612a7c9190615648565b60206040518083038186803b158015612a9457600080fd5b505afa158015612aa8573d6000803e3d6000fd5b505050506040513d601f19601f82011682018060405250810190612acc91906149a7565b15612adc57600592505050612ae3565b6002925050505b919050565b7fc565b045403dc03c2eea82b81a0465edad9e2e7fc4d97e11421c209da93d7a9360045482604051612b1b929190615b23565b60405180910390a18060048190555050565b6000612b37611bc4565b612b54612b426124c9565b600143612b4f9190615fae565b611fe3565b1015612b95576040517f08c379a0000000000000000000000000000000000000000000000000000000008152600401612b8c90615a38565b60405180910390fd5b6000612baa8686868680519060200120611e20565b90508451865114612bf0576040517f08c379a0000000000000000000000000000000000000000000000000000000008152600401612be790615878565b60405180910390fd5b8351865114612c34576040517f08c379a0000000000000000000000000000000000000000000000000000000008152600401612c2b90615878565b60405180910390fd5b6000865111612c78576040517f08c379a0000000000000000000000000000000000000000000000000000000008152600401612c6f90615938565b60405180910390fd5b6000600160008381526020019081526020016000209050612cd8816000016040518060200160405290816000820160009054906101000a900467ffffffffffffffff1667ffffffffffffffff1667ffffffffffffffff1681525050613e10565b612d17576040517f08c379a0000000000000000000000000000000000000000000000000000000008152600401612d0e906159f8565b60405180910390fd5b6000612d29612d24611495565b613e2a565b612d3243613e2a565b612d3c9190615ee5565b90506000612d50612d4b610be0565b613e2a565b82612d5b9190615ee5565b9050612d738284600001613e8190919063ffffffff16565b612d898184600101613e8190919063ffffffff16565b7f7d84a6263ae0d98d3329bd7b46bb4e8d6f98cd35a7adb45c274c8b7fd5ebd5e084612db36124c9565b8b8b8d5167ffffffffffffffff811115612df6577f4e487b7100000000000000000000000000000000000000000000000000000000600052604160045260246000fd5b604051908082528060200260200182016040528015612e2957816020015b6060815260200190600190039081612e145790505b508c88888e604051612e4399989796959493929190615a73565b60405180910390a183945050505050949350505050565b60007f000000000000000000000000000000000000000000000000000000000000000073ffffffffffffffffffffffffffffffffffffffff16633a46b1a885856040518363ffffffff1660e01b8152600401612eb79291906154cc565b60206040518083038186803b158015612ecf57600080fd5b505afa158015612ee3573d6000803e3d6000fd5b505050506040513d601f19601f82011682018060405250810190612f079190614a74565b90509392505050565b7f08f74ea46ef7894f65eabfb5e6e695de773a000b47c529ab559178069b226401600960009054906101000a900473ffffffffffffffffffffffffffffffffffffffff1682604051612f639291906154a3565b60405180910390a180600960006101000a81548173ffffffffffffffffffffffffffffffffffffffff021916908373ffffffffffffffffffffffffffffffffffffffff16021790555050565b6000600654905090565b6060612fdf84848460405180606001604052806029815260200161692360299139613eb0565b90509392505050565b6000811161302b576040517f08c379a000000000000000000000000000000000000000000000000000000000815260040161302290615898565b60405180910390fd5b7f7e3f7f0708a84de9203036abaa450dccc85ad5ff52f78c170f3edb55cf5e88286005548260405161305e929190615b23565b60405180910390a18060058190555050565b606060405180602001604052806000815250905090565b7fccb45da8d5717e6c4544694297c4ba5cf151d455c9bb0ed4fc7a38411bc05461600654826040516130ba929190615b23565b60405180910390a18060068190555050565b60006130d66119c3565b6130de6119e2565b7f000000000000000000000000000000000000000000000000000000000000000073ffffffffffffffffffffffffffffffffffffffff16638e539e8c856040518263ffffffff1660e01b81526004016131379190615a58565b60206040518083038186803b15801561314f57600080fd5b505afa158015613163573d6000803e3d6000fd5b505050506040513d601f19601f820116820180604052508101906131879190614a74565b6131919190615f54565b61319b9190615f23565b9050919050565b6000639a802a6d60e01b630342018160e01b635f398a1460e01b7f79dd796f000000000000000000000000000000000000000000000000000000001818187bffffffffffffffffffffffffffffffffffffffffffffffffffffffff1916827bffffffffffffffffffffffffffffffffffffffffffffffffffffffff1916148061328857507f79dd796f000000000000000000000000000000000000000000000000000000007bffffffffffffffffffffffffffffffffffffffffffffffffffffffff1916827bffffffffffffffffffffffffffffffffffffffffffffffffffffffff1916145b806132f057507f4e2312e0000000000000000000000000000000000000000000000000000000007bffffffffffffffffffffffffffffffffffffffffffffffffffffffff1916827bffffffffffffffffffffffffffffffffffffffffffffffffffffffff1916145b8061330057506132ff82613fc4565b5b9050919050565b60007f000000000000000000000000000000000000000000000000000000000000000073ffffffffffffffffffffffffffffffffffffffff163073ffffffffffffffffffffffffffffffffffffffff1614801561338357507f000000000000000000000000000000000000000000000000000000000000000046145b156133b0577f0000000000000000000000000000000000000000000000000000000000000000905061341e565b61341b7f00000000000000000000000000000000000000000000000000000000000000007f00000000000000000000000000000000000000000000000000000000000000007f000000000000000000000000000000000000000000000000000000000000000061402e565b90505b90565b60008282604051602001613436929190615451565b60405160208183030381529060405280519060200120905092915050565b6000807f7fffffffffffffffffffffffffffffff5d576e7357a4501ddfe92f46681b20a08360001c111561348f576000600391509150613558565b601b8560ff16141580156134a75750601c8560ff1614155b156134b9576000600491509150613558565b6000600187878787604051600081526020016040526040516134de9493929190615740565b6020604051602081039080840390855afa158015613500573d6000803e3d6000fd5b505050602060405103519050600073ffffffffffffffffffffffffffffffffffffffff168173ffffffffffffffffffffffffffffffffffffffff16141561354f57600060019250925050613558565b80600092509250505b94509492505050565b6000600481111561359b577f4e487b7100000000000000000000000000000000000000000000000000000000600052602160045260246000fd5b8160048111156135d4577f4e487b7100000000000000000000000000000000000000000000000000000000600052602160045260246000fd5b14156135df576138af565b60016004811115613619577f4e487b7100000000000000000000000000000000000000000000000000000000600052602160045260246000fd5b816004811115613652577f4e487b7100000000000000000000000000000000000000000000000000000000600052602160045260246000fd5b1415613693576040517f08c379a000000000000000000000000000000000000000000000000000000000815260040161368a906157f8565b60405180910390fd5b600260048111156136cd577f4e487b7100000000000000000000000000000000000000000000000000000000600052602160045260246000fd5b816004811115613706577f4e487b7100000000000000000000000000000000000000000000000000000000600052602160045260246000fd5b1415613747576040517f08c379a000000000000000000000000000000000000000000000000000000000815260040161373e90615858565b60405180910390fd5b60036004811115613781577f4e487b7100000000000000000000000000000000000000000000000000000000600052602160045260246000fd5b8160048111156137ba577f4e487b7100000000000000000000000000000000000000000000000000000000600052602160045260246000fd5b14156137fb576040517f08c379a00000000000000000000000000000000000000000000000000000000081526004016137f2906158b8565b60405180910390fd5b600480811115613834577f4e487b7100000000000000000000000000000000000000000000000000000000600052602160045260246000fd5b81600481111561386d577f4e487b7100000000000000000000000000000000000000000000000000000000600052602160045260246000fd5b14156138ae576040517f08c379a00000000000000000000000000000000000000000000000000000000081526004016138a590615958565b60405180910390fd5b5b50565b60006007600087815260200190815260200160002090508060030160008673ffffffffffffffffffffffffffffffffffffffff1673ffffffffffffffffffffffffffffffffffffffff16815260200190815260200160002060009054906101000a900460ff1615613958576040517f08c379a000000000000000000000000000000000000000000000000000000000815260040161394f906158d8565b60405180910390fd5b60018160030160008773ffffffffffffffffffffffffffffffffffffffff1673ffffffffffffffffffffffffffffffffffffffff16815260200190815260200160002060006101000a81548160ff021916908315150217905550600060028111156139ec577f4e487b7100000000000000000000000000000000000000000000000000000000600052602160045260246000fd5b60ff168460ff161415613a195782816000016000828254613a0d9190615e8f565b92505081905550613b23565b60016002811115613a53577f4e487b7100000000000000000000000000000000000000000000000000000000600052602160045260246000fd5b60ff168460ff161415613a805782816001016000828254613a749190615e8f565b92505081905550613b22565b600280811115613ab9577f4e487b7100000000000000000000000000000000000000000000000000000000600052602160045260246000fd5b60ff168460ff161415613ae65782816002016000828254613ada9190615e8f565b92505081905550613b21565b6040517f08c379a0000000000000000000000000000000000000000000000000000000008152600401613b18906159d8565b60405180910390fd5b5b5b505050505050565b60008160000160009054906101000a9004600f0b600f0b8260000160109054906101000a9004600f0b600f0b13159050919050565b60008260000160109054906101000a9004600f0b90508183600101600083600f0b600f0b815260200190815260200160002081905550600181018360000160106101000a8154816fffffffffffffffffffffffffffffffff0219169083600f0b6fffffffffffffffffffffffffffffffff160217905550505050565b600960009054906101000a900473ffffffffffffffffffffffffffffffffffffffff1673ffffffffffffffffffffffffffffffffffffffff1663e38335e5348686866000876040518763ffffffff1660e01b8152600401613c4195949392919061554f565b6000604051808303818588803b158015613c5a57600080fd5b505af1158015613c6e573d6000803e3d6000fd5b50505050505050505050565b60008160000160006101000a8154816fffffffffffffffffffffffffffffffff0219169083600f0b6fffffffffffffffffffffffffffffffff16021790555060008160000160106101000a8154816fffffffffffffffffffffffffffffffff0219169083600f0b6fffffffffffffffffffffffffffffffff16021790555050565b6000806001600084815260200190815260200160002090508060020160009054906101000a900460ff1615613d34576007915050613e0b565b8060020160019054906101000a900460ff1615613d55576002915050613e0b565b6000613d6084611403565b90506000811415613da6576040517f08c379a0000000000000000000000000000000000000000000000000000000008152600401613d9d906159b8565b60405180910390fd5b438110613db857600092505050613e0b565b6000613dc385611c6c565b9050438110613dd85760019350505050613e0b565b613de185614068565b8015613df25750613df1856140af565b5b15613e035760049350505050613e0b565b600393505050505b919050565b600080826000015167ffffffffffffffff16149050919050565b600067ffffffffffffffff8016821115613e79576040517f08c379a0000000000000000000000000000000000000000000000000000000008152600401613e7090615978565b60405180910390fd5b819050919050565b808260000160006101000a81548167ffffffffffffffff021916908367ffffffffffffffff1602179055505050565b606082471015613ef5576040517f08c379a0000000000000000000000000000000000000000000000000000000008152600401613eec906158f8565b60405180910390fd5b613efe856140da565b613f3d576040517f08c379a0000000000000000000000000000000000000000000000000000000008152600401613f3490615a18565b60405180910390fd5b6000808673ffffffffffffffffffffffffffffffffffffffff168587604051613f66919061543a565b60006040518083038185875af1925050503d8060008114613fa3576040519150601f19603f3d011682016040523d82523d6000602084013e613fa8565b606091505b5091509150613fb88282866140fd565b92505050949350505050565b60007f01ffc9a7000000000000000000000000000000000000000000000000000000007bffffffffffffffffffffffffffffffffffffffffffffffffffffffff1916827bffffffffffffffffffffffffffffffffffffffffffffffffffffffff1916149050919050565b60008383834630604051602001614049959493929190615663565b6040516020818303038152906040528051906020012090509392505050565b600080600760008481526020019081526020016000209050806002015481600101546140949190615e8f565b6140a56140a085611403565b612110565b1115915050919050565b6000806007600084815260200190815260200160002090508060000154816001015411915050919050565b6000808273ffffffffffffffffffffffffffffffffffffffff163b119050919050565b6060831561410d5782905061415d565b6000835111156141205782518084602001fd5b816040517f08c379a000000000000000000000000000000000000000000000000000000000815260040161415491906157d6565b60405180910390fd5b9392505050565b600061417761417284615c55565b615c30565b9050808382526020820190508285602086028201111561419657600080fd5b60005b858110156141c657816141ac888261433e565b845260208401935060208301925050600181019050614199565b5050509392505050565b60006141e36141de84615c81565b615c30565b9050808382526020820190508285602086028201111561420257600080fd5b60005b8581101561424c57813567ffffffffffffffff81111561422457600080fd5b808601614231898261446f565b85526020850194506020840193505050600181019050614205565b5050509392505050565b600061426961426484615cad565b615c30565b9050808382526020820190508285602086028201111561428857600080fd5b60005b858110156142b8578161429e8882614522565b84526020840193506020830192505060018101905061428b565b5050509392505050565b60006142d56142d084615cd9565b615c30565b9050828152602081018484840111156142ed57600080fd5b6142f8848285616124565b509392505050565b600061431361430e84615d0a565b615c30565b90508281526020810184848401111561432b57600080fd5b614336848285616124565b509392505050565b60008135905061434d81616881565b92915050565b600082601f83011261436457600080fd5b8135614374848260208601614164565b91505092915050565b600082601f83011261438e57600080fd5b813561439e8482602086016141d0565b91505092915050565b600082601f8301126143b857600080fd5b81356143c8848260208601614256565b91505092915050565b6000815190506143e081616898565b92915050565b6000813590506143f5816168af565b92915050565b60008151905061440a816168af565b92915050565b60008135905061441f816168c6565b92915050565b60008083601f84011261443757600080fd5b8235905067ffffffffffffffff81111561445057600080fd5b60208301915083600182028301111561446857600080fd5b9250929050565b600082601f83011261448057600080fd5b81356144908482602086016142c2565b91505092915050565b6000813590506144a8816168dd565b92915050565b60008083601f8401126144c057600080fd5b8235905067ffffffffffffffff8111156144d957600080fd5b6020830191508360018202830111156144f157600080fd5b9250929050565b600082601f83011261450957600080fd5b8135614519848260208601614300565b91505092915050565b600081359050614531816168f4565b92915050565b600081519050614546816168f4565b92915050565b60008135905061455b8161690b565b92915050565b600080600080600060a0868803121561457957600080fd5b60006145878882890161433e565b95505060206145988882890161433e565b945050604086013567ffffffffffffffff8111156145b557600080fd5b6145c1888289016143a7565b935050606086013567ffffffffffffffff8111156145de57600080fd5b6145ea888289016143a7565b925050608086013567ffffffffffffffff81111561460757600080fd5b6146138882890161446f565b9150509295509295909350565b6000806000806080858703121561463657600080fd5b60006146448782880161433e565b94505060206146558782880161433e565b935050604061466687828801614522565b925050606085013567ffffffffffffffff81111561468357600080fd5b61468f8782880161446f565b91505092959194509250565b600080600080600060a086880312156146b357600080fd5b60006146c18882890161433e565b95505060206146d28882890161433e565b94505060406146e388828901614522565b93505060606146f488828901614522565b925050608086013567ffffffffffffffff81111561471157600080fd5b61471d8882890161446f565b9150509295509295909350565b6000806040838503121561473d57600080fd5b600061474b8582860161433e565b925050602061475c85828601614522565b9150509250929050565b6000806000806060858703121561477c57600080fd5b600061478a8782880161433e565b945050602061479b87828801614522565b935050604085013567ffffffffffffffff8111156147b857600080fd5b6147c487828801614425565b925092505092959194509250565b6000806000606084860312156147e757600080fd5b60006147f58682870161433e565b935050602061480686828701614522565b925050604084013567ffffffffffffffff81111561482357600080fd5b61482f8682870161446f565b9150509250925092565b6000806000806080858703121561484f57600080fd5b600085013567ffffffffffffffff81111561486957600080fd5b61487587828801614353565b945050602085013567ffffffffffffffff81111561489257600080fd5b61489e878288016143a7565b935050604085013567ffffffffffffffff8111156148bb57600080fd5b6148c78782880161437d565b92505060606148d8878288016143e6565b91505092959194509250565b600080600080608085870312156148fa57600080fd5b600085013567ffffffffffffffff81111561491457600080fd5b61492087828801614353565b945050602085013567ffffffffffffffff81111561493d57600080fd5b614949878288016143a7565b935050604085013567ffffffffffffffff81111561496657600080fd5b6149728782880161437d565b925050606085013567ffffffffffffffff81111561498f57600080fd5b61499b878288016144f8565b91505092959194509250565b6000602082840312156149b957600080fd5b60006149c7848285016143d1565b91505092915050565b6000602082840312156149e257600080fd5b60006149f0848285016143fb565b91505092915050565b600060208284031215614a0b57600080fd5b6000614a1984828501614410565b91505092915050565b600060208284031215614a3457600080fd5b6000614a4284828501614499565b91505092915050565b600060208284031215614a5d57600080fd5b6000614a6b84828501614522565b91505092915050565b600060208284031215614a8657600080fd5b6000614a9484828501614537565b91505092915050565b60008060408385031215614ab057600080fd5b6000614abe85828601614522565b9250506020614acf8582860161433e565b9150509250929050565b60008060408385031215614aec57600080fd5b6000614afa85828601614522565b9250506020614b0b8582860161454c565b9150509250929050565b60008060008060608587031215614b2b57600080fd5b6000614b3987828801614522565b9450506020614b4a8782880161454c565b935050604085013567ffffffffffffffff811115614b6757600080fd5b614b73878288016144ae565b925092505092959194509250565b600080600080600060808688031215614b9957600080fd5b6000614ba788828901614522565b9550506020614bb88882890161454c565b945050604086013567ffffffffffffffff811115614bd557600080fd5b614be1888289016144ae565b9350935050606086013567ffffffffffffffff811115614c0057600080fd5b614c0c8882890161446f565b9150509295509295909350565b60008060008060008060008060e0898b031215614c3557600080fd5b6000614c438b828c01614522565b9850506020614c548b828c0161454c565b975050604089013567ffffffffffffffff811115614c7157600080fd5b614c7d8b828c016144ae565b9650965050606089013567ffffffffffffffff811115614c9c57600080fd5b614ca88b828c0161446f565b9450506080614cb98b828c0161454c565b93505060a0614cca8b828c016143e6565b92505060c0614cdb8b828c016143e6565b9150509295985092959890939650565b600080600080600060a08688031215614d0357600080fd5b6000614d1188828901614522565b9550506020614d228882890161454c565b9450506040614d338882890161454c565b9350506060614d44888289016143e6565b9250506080614d55888289016143e6565b9150509295509295909350565b6000614d6e8383614dba565b60208301905092915050565b6000614d868383614fe7565b905092915050565b6000614d9a83836150b7565b905092915050565b6000614dae83836153e5565b60208301905092915050565b614dc381615fe2565b82525050565b614dd281615fe2565b82525050565b6000614de382615d7b565b614ded8185615df1565b9350614df883615d3b565b8060005b83811015614e29578151614e108882614d62565b9750614e1b83615dbd565b925050600181019050614dfc565b5085935050505092915050565b6000614e4182615d86565b614e4b8185615e02565b935083602082028501614e5d85615d4b565b8060005b85811015614e995784840389528151614e7a8582614d7a565b9450614e8583615dca565b925060208a01995050600181019050614e61565b50829750879550505050505092915050565b6000614eb682615d91565b614ec08185615e13565b935083602082028501614ed285615d5b565b8060005b85811015614f0e5784840389528151614eef8582614d8e565b9450614efa83615dd7565b925060208a01995050600181019050614ed6565b50829750879550505050505092915050565b6000614f2b82615d9c565b614f358185615e24565b9350614f4083615d6b565b8060005b83811015614f71578151614f588882614da2565b9750614f6383615de4565b925050600181019050614f44565b5085935050505092915050565b614f8781616006565b82525050565b614f9681616012565b82525050565b614fad614fa882616012565b616212565b82525050565b614fbc8161601c565b82525050565b6000614fce8385615e57565b9350614fdb838584616124565b82840190509392505050565b6000614ff282615da7565b614ffc8185615e35565b935061500c818560208601616133565b61501581616307565b840191505092915050565b600061502b82615da7565b6150358185615e46565b9350615045818560208601616133565b61504e81616307565b840191505092915050565b600061506482615da7565b61506e8185615e57565b935061507e818560208601616133565b80840191505092915050565b615093816160c2565b82525050565b6150a2816160e6565b82525050565b6150b1816160f8565b82525050565b60006150c282615db2565b6150cc8185615e62565b93506150dc818560208601616133565b6150e581616307565b840191505092915050565b60006150fb82615db2565b6151058185615e73565b9350615115818560208601616133565b61511e81616307565b840191505092915050565b6000615136601883615e73565b915061514182616325565b602082019050919050565b6000615159601883615e73565b91506151648261634e565b602082019050919050565b600061517c604383615e73565b915061518782616377565b606082019050919050565b600061519f601f83615e73565b91506151aa826163ec565b602082019050919050565b60006151c2600283615e84565b91506151cd82616415565b600282019050919050565b60006151e5602183615e73565b91506151f08261643e565b604082019050919050565b6000615208602783615e73565b91506152138261648d565b604082019050919050565b600061522b602283615e73565b9150615236826164dc565b604082019050919050565b600061524e602783615e73565b91506152598261652b565b604082019050919050565b6000615271602683615e73565b915061527c8261657a565b604082019050919050565b6000615294602383615e73565b915061529f826165c9565b604082019050919050565b60006152b7601883615e73565b91506152c282616618565b602082019050919050565b60006152da602283615e73565b91506152e582616641565b604082019050919050565b60006152fd602683615e73565b915061530882616690565b604082019050919050565b6000615320602183615e73565b915061532b826166df565b604082019050919050565b6000615343601d83615e73565b915061534e8261672e565b602082019050919050565b6000615366603583615e73565b915061537182616757565b604082019050919050565b6000615389602183615e73565b9150615394826167a6565b604082019050919050565b60006153ac601d83615e73565b91506153b7826167f5565b602082019050919050565b60006153cf603183615e73565b91506153da8261681e565b604082019050919050565b6153ee81616097565b82525050565b6153fd81616097565b82525050565b61540c81616112565b82525050565b61541b816160b5565b82525050565b600061542e828486614fc2565b91508190509392505050565b60006154468284615059565b915081905092915050565b600061545c826151b5565b91506154688285614f9c565b6020820191506154788284614f9c565b6020820191508190509392505050565b600060208201905061549d6000830184614dc9565b92915050565b60006040820190506154b86000830185614dc9565b6154c56020830184614dc9565b9392505050565b60006040820190506154e16000830185614dc9565b6154ee60208301846153f4565b9392505050565b6000608082019050818103600083015261550f8187614dd8565b905081810360208301526155238186614f20565b905081810360408301526155378185614e36565b90506155466060830184614f8d565b95945050505050565b600060a08201905081810360008301526155698188614dd8565b9050818103602083015261557d8187614f20565b905081810360408301526155918186614e36565b90506155a060608301856150a8565b6155ad6080830184614f8d565b9695505050505050565b600060c08201905081810360008301526155d18189614dd8565b905081810360208301526155e58188614f20565b905081810360408301526155f98187614e36565b905061560860608301866150a8565b6156156080830185614f8d565b61562260a08301846153f4565b979650505050505050565b60006020820190506156426000830184614f7e565b92915050565b600060208201905061565d6000830184614f8d565b92915050565b600060a0820190506156786000830188614f8d565b6156856020830187614f8d565b6156926040830186614f8d565b61569f60608301856153f4565b6156ac6080830184614dc9565b9695505050505050565b60006060820190506156cb6000830186614f8d565b6156d860208301856153f4565b6156e56040830184615412565b949350505050565b600060a0820190506157026000830188614f8d565b61570f60208301876153f4565b61571c6040830186615412565b6157296060830185614f8d565b6157366080830184614f8d565b9695505050505050565b60006080820190506157556000830187614f8d565b6157626020830186615412565b61576f6040830185614f8d565b61577c6060830184614f8d565b95945050505050565b600060208201905061579a6000830184614fb3565b92915050565b60006020820190506157b5600083018461508a565b92915050565b60006020820190506157d06000830184615099565b92915050565b600060208201905081810360008301526157f081846150f0565b905092915050565b6000602082019050818103600083015261581181615129565b9050919050565b600060208201905081810360008301526158318161514c565b9050919050565b600060208201905081810360008301526158518161516f565b9050919050565b6000602082019050818103600083015261587181615192565b9050919050565b60006020820190508181036000830152615891816151d8565b9050919050565b600060208201905081810360008301526158b1816151fb565b9050919050565b600060208201905081810360008301526158d18161521e565b9050919050565b600060208201905081810360008301526158f181615241565b9050919050565b6000602082019050818103600083015261591181615264565b9050919050565b6000602082019050818103600083015261593181615287565b9050919050565b60006020820190508181036000830152615951816152aa565b9050919050565b60006020820190508181036000830152615971816152cd565b9050919050565b60006020820190508181036000830152615991816152f0565b9050919050565b600060208201905081810360008301526159b181615313565b9050919050565b600060208201905081810360008301526159d181615336565b9050919050565b600060208201905081810360008301526159f181615359565b9050919050565b60006020820190508181036000830152615a118161537c565b9050919050565b60006020820190508181036000830152615a318161539f565b9050919050565b60006020820190508181036000830152615a51816153c2565b9050919050565b6000602082019050615a6d60008301846153f4565b92915050565b600061012082019050615a89600083018c6153f4565b615a96602083018b614dc9565b8181036040830152615aa8818a614dd8565b90508181036060830152615abc8189614f20565b90508181036080830152615ad08188614eab565b905081810360a0830152615ae48187614e36565b9050615af360c0830186615403565b615b0060e0830185615403565b818103610100830152615b1381846150f0565b90509a9950505050505050505050565b6000604082019050615b3860008301856153f4565b615b4560208301846153f4565b9392505050565b6000606082019050615b6160008301866153f4565b615b6e60208301856153f4565b615b7b60408301846153f4565b949350505050565b6000608082019050615b9860008301876153f4565b615ba56020830186615412565b615bb260408301856153f4565b8181036060830152615bc481846150f0565b905095945050505050565b600060a082019050615be460008301886153f4565b615bf16020830187615412565b615bfe60408301866153f4565b8181036060830152615c1081856150f0565b90508181036080830152615c248184615020565b90509695505050505050565b6000615c3a615c4b565b9050615c468282616198565b919050565b6000604051905090565b600067ffffffffffffffff821115615c7057615c6f6162d8565b5b602082029050602081019050919050565b600067ffffffffffffffff821115615c9c57615c9b6162d8565b5b602082029050602081019050919050565b600067ffffffffffffffff821115615cc857615cc76162d8565b5b602082029050602081019050919050565b600067ffffffffffffffff821115615cf457615cf36162d8565b5b615cfd82616307565b9050602081019050919050565b600067ffffffffffffffff821115615d2557615d246162d8565b5b615d2e82616307565b9050602081019050919050565b6000819050602082019050919050565b6000819050602082019050919050565b6000819050602082019050919050565b6000819050602082019050919050565b600081519050919050565b600081519050919050565b600081519050919050565b600081519050919050565b600081519050919050565b600081519050919050565b6000602082019050919050565b6000602082019050919050565b6000602082019050919050565b6000602082019050919050565b600082825260208201905092915050565b600082825260208201905092915050565b600082825260208201905092915050565b600082825260208201905092915050565b600082825260208201905092915050565b600082825260208201905092915050565b600081905092915050565b600082825260208201905092915050565b600082825260208201905092915050565b600081905092915050565b6000615e9a82616097565b9150615ea583616097565b9250827fffffffffffffffffffffffffffffffffffffffffffffffffffffffffffffffff03821115615eda57615ed961621c565b5b828201905092915050565b6000615ef0826160a1565b9150615efb836160a1565b92508267ffffffffffffffff03821115615f1857615f1761621c565b5b828201905092915050565b6000615f2e82616097565b9150615f3983616097565b925082615f4957615f4861624b565b5b828204905092915050565b6000615f5f82616097565b9150615f6a83616097565b9250817fffffffffffffffffffffffffffffffffffffffffffffffffffffffffffffffff0483118215151615615fa357615fa261621c565b5b828202905092915050565b6000615fb982616097565b9150615fc483616097565b925082821015615fd757615fd661621c565b5b828203905092915050565b6000615fed82616077565b9050919050565b6000615fff82616077565b9050919050565b60008115159050919050565b6000819050919050565b60007fffffffff0000000000000000000000000000000000000000000000000000000082169050919050565b600061605382615ff4565b9050919050565b60008190506160688261686d565b919050565b6000819050919050565b600073ffffffffffffffffffffffffffffffffffffffff82169050919050565b6000819050919050565b600067ffffffffffffffff82169050919050565b600060ff82169050919050565b60006160cd826160d4565b9050919050565b60006160df82616077565b9050919050565b60006160f18261605a565b9050919050565b600061610b6161068361606d565b616318565b9050919050565b600061611d826160a1565b9050919050565b82818337600083830152505050565b60005b83811015616151578082015181840152602081019050616136565b83811115616160576000848401525b50505050565b6000600282049050600182168061617e57607f821691505b60208210811415616192576161916162a9565b5b50919050565b6161a182616307565b810181811067ffffffffffffffff821117156161c0576161bf6162d8565b5b80604052505050565b60006161d482616097565b91507fffffffffffffffffffffffffffffffffffffffffffffffffffffffffffffffff8214156162075761620661621c565b5b600182019050919050565b6000819050919050565b7f4e487b7100000000000000000000000000000000000000000000000000000000600052601160045260246000fd5b7f4e487b7100000000000000000000000000000000000000000000000000000000600052601260045260246000fd5b7f4e487b7100000000000000000000000000000000000000000000000000000000600052602160045260246000fd5b7f4e487b7100000000000000000000000000000000000000000000000000000000600052602260045260246000fd5b7f4e487b7100000000000000000000000000000000000000000000000000000000600052604160045260246000fd5b6000601f19601f8301169050919050565b60008160001b9050919050565b7f45434453413a20696e76616c6964207369676e61747572650000000000000000600082015250565b7f476f7665726e6f723a206f6e6c79476f7665726e616e63650000000000000000600082015250565b7f476f7665726e6f72566f74657351756f72756d4672616374696f6e3a2071756f60008201527f72756d4e756d657261746f72206f7665722071756f72756d44656e6f6d696e6160208201527f746f720000000000000000000000000000000000000000000000000000000000604082015250565b7f45434453413a20696e76616c6964207369676e6174757265206c656e67746800600082015250565b7f1901000000000000000000000000000000000000000000000000000000000000600082015250565b7f476f7665726e6f723a20696e76616c69642070726f706f73616c206c656e677460008201527f6800000000000000000000000000000000000000000000000000000000000000602082015250565b7f476f7665726e6f7253657474696e67733a20766f74696e6720706572696f642060008201527f746f6f206c6f7700000000000000000000000000000000000000000000000000602082015250565b7f45434453413a20696e76616c6964207369676e6174757265202773272076616c60008201527f7565000000000000000000000000000000000000000000000000000000000000602082015250565b7f476f7665726e6f72566f74696e6753696d706c653a20766f746520616c72656160008201527f6479206361737400000000000000000000000000000000000000000000000000602082015250565b7f416464726573733a20696e73756666696369656e742062616c616e636520666f60008201527f722063616c6c0000000000000000000000000000000000000000000000000000602082015250565b7f476f7665726e6f723a20766f7465206e6f742063757272656e746c792061637460008201527f6976650000000000000000000000000000000000000000000000000000000000602082015250565b7f476f7665726e6f723a20656d7074792070726f706f73616c0000000000000000600082015250565b7f45434453413a20696e76616c6964207369676e6174757265202776272076616c60008201527f7565000000000000000000000000000000000000000000000000000000000000602082015250565b7f53616665436173743a2076616c756520646f65736e27742066697420696e203660008201527f3420626974730000000000000000000000000000000000000000000000000000602082015250565b7f476f7665726e6f723a2070726f706f73616c206e6f742073756363657373667560008201527f6c00000000000000000000000000000000000000000000000000000000000000602082015250565b7f476f7665726e6f723a20756e6b6e6f776e2070726f706f73616c206964000000600082015250565b7f476f7665726e6f72566f74696e6753696d706c653a20696e76616c696420766160008201527f6c756520666f7220656e756d20566f7465547970650000000000000000000000602082015250565b7f476f7665726e6f723a2070726f706f73616c20616c726561647920657869737460008201527f7300000000000000000000000000000000000000000000000000000000000000602082015250565b7f416464726573733a2063616c6c20746f206e6f6e2d636f6e7472616374000000600082015250565b7f476f7665726e6f723a2070726f706f73657220766f7465732062656c6f77207060008201527f726f706f73616c207468726573686f6c64000000000000000000000000000000602082015250565b6008811061687e5761687d61627a565b5b50565b61688a81615fe2565b811461689557600080fd5b50565b6168a181616006565b81146168ac57600080fd5b50565b6168b881616012565b81146168c357600080fd5b50565b6168cf8161601c565b81146168da57600080fd5b50565b6168e681616048565b81146168f157600080fd5b50565b6168fd81616097565b811461690857600080fd5b50565b616914816160b5565b811461691f57600080fd5b5056fe416464726573733a206c6f772d6c6576656c2063616c6c20776974682076616c7565206661696c6564a2646970667358221220190e2e83abe95e31eb040a961737975e5567554c4c620a0dab3491e783a9c36964736f6c63430008040033",
  "linkReferences": {},
  "deployedLinkReferences": {}
}