{
  "_format": "hh-sol-artifact-1",
  "contractName": "Treasury",
  "sourceName": "contracts/Treasury.sol",
  "abi": [
    {
      "anonymous": false,
      "inputs": [
        {
          "indexed": true,
          "internalType": "address",
          "name": "previousOwner",
          "type": "address"
        },
        {
          "indexed": true,
          "internalType": "address",
          "name": "newOwner",
          "type": "address"
        }
      ],
      "name": "OwnershipTransferred",
      "type": "event"
    },
    {
      "inputs": [],
      "name": "balance",
      "outputs": [
        {
          "internalType": "uint256",
          "name": "",
          "type": "uint256"
        }
      ],
      "stateMutability": "view",
      "type": "function"
    },
    {
      "inputs": [],
      "name": "owner",
      "outputs": [
        {
          "internalType": "address",
          "name": "",
          "type": "address"
        }
      ],
      "stateMutability": "view",
      "type": "function"
    },
    {
      "inputs": [],
      "name": "renounceOwnership",
      "outputs": [],
      "stateMutability": "nonpayable",
      "type": "function"
    },
    {
      "inputs": [
        {
          "internalType": "address",
          "name": "newOwner",
          "type": "address"
        }
      ],
      "name": "transferOwnership",
      "outputs": [],
      "stateMutability": "nonpayable",
      "type": "function"
    },
    {
      "inputs": [
        {
          "internalType": "address",
          "name": "to",
          "type": "address"
        },
        {
          "internalType": "uint256",
          "name": "amount",
          "type": "uint256"
        }
      ],
      "name": "withdrawFunds",
      "outputs": [],
      "stateMutability": "nonpayable",
      "type": "function"
    },
    {
      "stateMutability": "payable",
      "type": "receive"
    }
  ],
  "bytecode": "0x608060405234801561001057600080fd5b5061002d61002261003260201b60201c565b61003a60201b60201c565b6100fe565b600033905090565b60008060009054906101000a900473ffffffffffffffffffffffffffffffffffffffff169050816000806101000a81548173ffffffffffffffffffffffffffffffffffffffff021916908373ffffffffffffffffffffffffffffffffffffffff1602179055508173ffffffffffffffffffffffffffffffffffffffff168173ffffffffffffffffffffffffffffffffffffffff167f8be0079c531659141344cd1fd0a4f28419497f9722a3daafe3b4186f6b6457e060405160405180910390a35050565b610a698061010d6000396000f3fe60806040526004361061004e5760003560e01c8063715018a61461005a5780638da5cb5b14610071578063b69ef8a81461009c578063c1075329146100c7578063f2fde38b146100f057610055565b3661005557005b600080fd5b34801561006657600080fd5b5061006f610119565b005b34801561007d57600080fd5b5061008661012d565b6040516100939190610804565b60405180910390f35b3480156100a857600080fd5b506100b1610156565b6040516100be919061089f565b60405180910390f35b3480156100d357600080fd5b506100ee60048036038101906100e991906106e6565b6101e2565b005b3480156100fc57600080fd5b50610117600480360381019061011291906106bd565b6104c2565b005b610121610546565b61012b60006105c4565b565b60008060009054906101000a900473ffffffffffffffffffffffffffffffffffffffff16905090565b60006101847f3af579e101864310134306eeb955cd7ce0727de10328755cbb1bdc96f6be032360001b610688565b6101b07f45b8ea2fef0dfcb3f9942e7314801ca31615fbc71b474408f70b8021e30ae87760001b610688565b6101dc7fb9bac2d3dc5433e8efe11a2ee59e59d6ba01da21c8f4604d833d59584cb8112560001b610688565b47905090565b6101ea610546565b6102167fb5fc46b4e434ab982c6f94f13f5be087a4922c59f04e5907f3f7e53cdf7b59a260001b610688565b6102427f63160096bcc316edc9b06c5f30990dc0b6480cef07584e27e8915dfcab4f72da60001b610688565b61026e7f20c72d3336194a5c3eed596fbca7e255fe725c3b699ca5d620b219cf2061cacc60001b610688565b61029a7f66d5dba11c2f842bee3cfa74fd3a1fb8fe7e2b3000411fa78f0bf6aab750eaca60001b610688565b478111156102dd576040517f08c379a00000000000000000000000000000000000000000000000000000000081526004016102d49061081f565b60405180910390fd5b6103097f62e777cadc6af87c1eec33b09ffedc105ba4973a310d8a8f9fb590bf5a5204bd60001b610688565b6103357f54547d3d6b666e7a0518908c1f32a0f51f9c873b79732ec025ac6a3480def54560001b610688565b6103617fcfa19ae6efbffd3cc62da26ed1b9c1540a05a529bd5ca2fe6cddaa2f54643ccb60001b610688565b60008273ffffffffffffffffffffffffffffffffffffffff1682604051610387906107ef565b60006040518083038185875af1925050503d80600081146103c4576040519150601f19603f3d011682016040523d82523d6000602084013e6103c9565b606091505b505090506103f97f602d597e57529b5e3472f603aebbeb5c4bcb89850a8ca055b78f11d2c5bea78860001b610688565b6104257f3ff2ecaf4c22c2886c7cd664a7a74a81c34dc578bb310eafe45fd0776e7eaf4260001b610688565b6104517fc2bee476677306ce6377629c224699098db4ed9864f0c1b3ccede3b8a647b0a860001b610688565b80610491576040517f08c379a00000000000000000000000000000000000000000000000000000000081526004016104889061085f565b60405180910390fd5b6104bd7f7ea9b38b7eef22b018a7ce61b7fb0ef0839ce8c77f6c4181ec19cd36caa117a460001b610688565b505050565b6104ca610546565b600073ffffffffffffffffffffffffffffffffffffffff168173ffffffffffffffffffffffffffffffffffffffff16141561053a576040517f08c379a00000000000000000000000000000000000000000000000000000000081526004016105319061083f565b60405180910390fd5b610543816105c4565b50565b61054e61068b565b73ffffffffffffffffffffffffffffffffffffffff1661056c61012d565b73ffffffffffffffffffffffffffffffffffffffff16146105c2576040517f08c379a00000000000000000000000000000000000000000000000000000000081526004016105b99061087f565b60405180910390fd5b565b60008060009054906101000a900473ffffffffffffffffffffffffffffffffffffffff169050816000806101000a81548173ffffffffffffffffffffffffffffffffffffffff021916908373ffffffffffffffffffffffffffffffffffffffff1602179055508173ffffffffffffffffffffffffffffffffffffffff168173ffffffffffffffffffffffffffffffffffffffff167f8be0079c531659141344cd1fd0a4f28419497f9722a3daafe3b4186f6b6457e060405160405180910390a35050565b50565b600033905090565b6000813590506106a281610a05565b92915050565b6000813590506106b781610a1c565b92915050565b6000602082840312156106cf57600080fd5b60006106dd84828501610693565b91505092915050565b600080604083850312156106f957600080fd5b600061070785828601610693565b9250506020610718858286016106a8565b9150509250929050565b61072b816108d6565b82525050565b600061073e6030836108c5565b915061074982610912565b604082019050919050565b60006107616026836108c5565b915061076c82610961565b604082019050919050565b60006107846014836108c5565b915061078f826109b0565b602082019050919050565b60006107a76020836108c5565b91506107b2826109d9565b602082019050919050565b60006107ca6000836108ba565b91506107d582610a02565b600082019050919050565b6107e981610908565b82525050565b60006107fa826107bd565b9150819050919050565b60006020820190506108196000830184610722565b92915050565b6000602082019050818103600083015261083881610731565b9050919050565b6000602082019050818103600083015261085881610754565b9050919050565b6000602082019050818103600083015261087881610777565b9050919050565b600060208201905081810360008301526108988161079a565b9050919050565b60006020820190506108b460008301846107e0565b92915050565b600081905092915050565b600082825260208201905092915050565b60006108e1826108e8565b9050919050565b600073ffffffffffffffffffffffffffffffffffffffff82169050919050565b6000819050919050565b7f546869732077616c6c657420646f6573206e6f74206861766520656e6f75676860008201527f2062616c616e636520746f2073656e6400000000000000000000000000000000602082015250565b7f4f776e61626c653a206e6577206f776e657220697320746865207a65726f206160008201527f6464726573730000000000000000000000000000000000000000000000000000602082015250565b7f4661696c656420746f2073656e64204574686572000000000000000000000000600082015250565b7f4f776e61626c653a2063616c6c6572206973206e6f7420746865206f776e6572600082015250565b50565b610a0e816108d6565b8114610a1957600080fd5b50565b610a2581610908565b8114610a3057600080fd5b5056fea264697066735822122022e5e8c6b38f59de7c6e996a54931789c5f5b485c4aea0e408754d1dcf0db09364736f6c63430008040033",
  "linkReferences": {},
  "deployedLinkReferences": {}
}